{
  "abi": [
    {
      "inputs": [],
      "stateMutability": "nonpayable",
      "type": "constructor"
    },
    {
      "anonymous": false,
      "inputs": [
        {
          "indexed": false,
          "internalType": "address",
          "name": "previousAdmin",
          "type": "address"
        },
        {
          "indexed": false,
          "internalType": "address",
          "name": "newAdmin",
          "type": "address"
        }
      ],
      "name": "AdminChanged",
      "type": "event"
    },
    {
      "anonymous": false,
      "inputs": [
        {
          "indexed": false,
          "internalType": "uint256",
          "name": "timeBuffer",
          "type": "uint256"
        },
        {
          "indexed": false,
          "internalType": "uint256",
          "name": "bidBufferBps",
          "type": "uint256"
        }
      ],
      "name": "AuctionBuffersUpdated",
      "type": "event"
    },
    {
      "anonymous": false,
      "inputs": [
        {
          "indexed": true,
          "internalType": "uint256",
          "name": "listingId",
          "type": "uint256"
        },
        {
          "indexed": true,
          "internalType": "address",
          "name": "closer",
          "type": "address"
        },
        {
          "indexed": true,
          "internalType": "bool",
          "name": "cancelled",
          "type": "bool"
        },
        {
          "indexed": false,
          "internalType": "address",
          "name": "auctionCreator",
          "type": "address"
        },
        {
          "indexed": false,
          "internalType": "address",
          "name": "winningBidder",
          "type": "address"
        }
      ],
      "name": "AuctionClosed",
      "type": "event"
    },
    {
      "anonymous": false,
      "inputs": [
        {
          "indexed": true,
          "internalType": "address",
          "name": "beacon",
          "type": "address"
        }
      ],
      "name": "BeaconUpgraded",
      "type": "event"
    },
    {
      "anonymous": false,
      "inputs": [
        {
          "indexed": false,
          "internalType": "uint8",
          "name": "version",
          "type": "uint8"
        }
      ],
      "name": "Initialized",
      "type": "event"
    },
    {
      "anonymous": false,
      "inputs": [
        {
          "indexed": true,
          "internalType": "uint256",
          "name": "listingId",
          "type": "uint256"
        },
        {
          "indexed": true,
          "internalType": "address",
          "name": "assetContract",
          "type": "address"
        },
        {
          "indexed": true,
          "internalType": "address",
          "name": "lister",
          "type": "address"
        },
        {
          "components": [
            {
              "internalType": "uint256",
              "name": "listingId",
              "type": "uint256"
            },
            {
              "internalType": "address",
              "name": "tokenOwner",
              "type": "address"
            },
            {
              "internalType": "address",
              "name": "assetContract",
              "type": "address"
            },
            {
              "internalType": "uint256",
              "name": "tokenId",
              "type": "uint256"
            },
            {
              "internalType": "uint256",
              "name": "startTime",
              "type": "uint256"
            },
            {
              "internalType": "uint256",
              "name": "endTime",
              "type": "uint256"
            },
            {
              "internalType": "uint256",
              "name": "quantity",
              "type": "uint256"
            },
            {
              "internalType": "address",
              "name": "currency",
              "type": "address"
            },
            {
              "internalType": "uint256",
              "name": "reservePricePerToken",
              "type": "uint256"
            },
            {
              "internalType": "uint256",
              "name": "buyoutPricePerToken",
              "type": "uint256"
            },
            {
              "internalType": "uint256",
              "name": "rewardBps",
              "type": "uint256"
            },
            {
              "internalType": "enum IMarketplace.TokenType",
              "name": "tokenType",
              "type": "uint8"
            },
            {
              "internalType": "enum IMarketplace.ListingType",
              "name": "listingType",
              "type": "uint8"
            }
          ],
          "indexed": false,
          "internalType": "struct IMarketplace.Listing",
          "name": "listing",
          "type": "tuple"
        }
      ],
      "name": "ListingAdded",
      "type": "event"
    },
    {
      "anonymous": false,
      "inputs": [
        {
          "indexed": true,
          "internalType": "uint256",
          "name": "listingId",
          "type": "uint256"
        },
        {
          "indexed": true,
          "internalType": "address",
          "name": "listingCreator",
          "type": "address"
        }
      ],
      "name": "ListingRemoved",
      "type": "event"
    },
    {
      "anonymous": false,
      "inputs": [
        {
          "indexed": true,
          "internalType": "uint256",
          "name": "listingId",
          "type": "uint256"
        },
        {
          "indexed": true,
          "internalType": "address",
          "name": "listingCreator",
          "type": "address"
        }
      ],
      "name": "ListingUpdated",
      "type": "event"
    },
    {
      "anonymous": false,
      "inputs": [
        {
          "indexed": true,
          "internalType": "uint256",
          "name": "listingId",
          "type": "uint256"
        },
        {
          "indexed": true,
          "internalType": "address",
          "name": "offeror",
          "type": "address"
        },
        {
          "indexed": true,
          "internalType": "enum IMarketplace.ListingType",
          "name": "listingType",
          "type": "uint8"
        },
        {
          "indexed": false,
          "internalType": "uint256",
          "name": "quantityWanted",
          "type": "uint256"
        },
        {
          "indexed": false,
          "internalType": "uint256",
          "name": "totalOfferAmount",
          "type": "uint256"
        },
        {
          "indexed": false,
          "internalType": "address",
          "name": "currency",
          "type": "address"
        }
      ],
      "name": "NewOffer",
      "type": "event"
    },
    {
      "anonymous": false,
      "inputs": [
        {
          "indexed": true,
          "internalType": "uint256",
          "name": "listingId",
          "type": "uint256"
        },
        {
          "indexed": true,
          "internalType": "address",
          "name": "assetContract",
          "type": "address"
        },
        {
          "indexed": true,
          "internalType": "address",
          "name": "lister",
          "type": "address"
        },
        {
          "indexed": false,
          "internalType": "address",
          "name": "buyer",
          "type": "address"
        },
        {
          "indexed": false,
          "internalType": "uint256",
          "name": "quantityBought",
          "type": "uint256"
        },
        {
          "indexed": false,
          "internalType": "uint256",
          "name": "totalPricePaid",
          "type": "uint256"
        }
      ],
      "name": "NewSale",
      "type": "event"
    },
    {
      "anonymous": false,
      "inputs": [
        {
          "indexed": true,
          "internalType": "address",
          "name": "previousOwner",
          "type": "address"
        },
        {
          "indexed": true,
          "internalType": "address",
          "name": "newOwner",
          "type": "address"
        }
      ],
      "name": "OwnershipTransferred",
      "type": "event"
    },
    {
      "anonymous": false,
      "inputs": [
        {
          "indexed": true,
          "internalType": "address",
          "name": "platformFeeRecipient",
          "type": "address"
        },
        {
          "indexed": false,
          "internalType": "uint256",
          "name": "platformFeeBps",
          "type": "uint256"
        }
      ],
      "name": "PlatformFeeInfoUpdated",
      "type": "event"
    },
    {
      "anonymous": false,
      "inputs": [
        {
          "indexed": true,
          "internalType": "address",
          "name": "implementation",
          "type": "address"
        }
      ],
      "name": "Upgraded",
      "type": "event"
    },
    {
      "inputs": [
        {
          "internalType": "uint256",
          "name": "_listingId",
          "type": "uint256"
        },
        {
          "internalType": "address",
          "name": "_offeror",
          "type": "address"
        },
        {
          "internalType": "address",
          "name": "_currency",
          "type": "address"
        },
        {
          "internalType": "uint256",
          "name": "_pricePerToken",
          "type": "uint256"
        }
      ],
      "name": "acceptOffer",
      "outputs": [],
      "stateMutability": "nonpayable",
      "type": "function"
    },
    {
      "inputs": [],
      "name": "basicParams",
      "outputs": [
        {
          "internalType": "uint256",
          "name": "_totalListings",
          "type": "uint256"
        },
        {
          "internalType": "uint64",
          "name": "_MAX_BPS",
          "type": "uint64"
        },
        {
          "internalType": "uint64",
          "name": "_timeBuffer",
          "type": "uint64"
        },
        {
          "internalType": "uint64",
          "name": "_bidBufferBps",
          "type": "uint64"
        },
        {
          "internalType": "address",
          "name": "_nativeTokenWrapper",
          "type": "address"
        }
      ],
      "stateMutability": "view",
      "type": "function"
    },
    {
      "inputs": [
        {
          "internalType": "uint256",
          "name": "_listingId",
          "type": "uint256"
        },
        {
          "internalType": "address",
          "name": "_buyFor",
          "type": "address"
        },
        {
          "internalType": "uint256",
          "name": "_quantityToBuy",
          "type": "uint256"
        },
        {
          "internalType": "address",
          "name": "_currency",
          "type": "address"
        },
        {
          "internalType": "uint256",
          "name": "_totalPrice",
          "type": "uint256"
        }
      ],
      "name": "buy",
      "outputs": [],
      "stateMutability": "payable",
      "type": "function"
    },
    {
      "inputs": [
        {
          "internalType": "uint256",
          "name": "_listingId",
          "type": "uint256"
        }
      ],
      "name": "cancelDirectListing",
      "outputs": [],
      "stateMutability": "nonpayable",
      "type": "function"
    },
    {
      "inputs": [
        {
          "internalType": "uint256",
          "name": "_listingId",
          "type": "uint256"
        },
        {
          "internalType": "address",
          "name": "_closeFor",
          "type": "address"
        }
      ],
      "name": "closeAuction",
      "outputs": [],
      "stateMutability": "nonpayable",
      "type": "function"
    },
    {
      "inputs": [],
      "name": "contractType",
      "outputs": [
        {
          "internalType": "bytes32",
          "name": "",
          "type": "bytes32"
        }
      ],
      "stateMutability": "pure",
      "type": "function"
    },
    {
      "inputs": [],
      "name": "contractURI",
      "outputs": [
        {
          "internalType": "string",
          "name": "",
          "type": "string"
        }
      ],
      "stateMutability": "view",
      "type": "function"
    },
    {
      "inputs": [],
      "name": "contractVersion",
      "outputs": [
        {
          "internalType": "uint8",
          "name": "",
          "type": "uint8"
        }
      ],
      "stateMutability": "pure",
      "type": "function"
    },
    {
      "inputs": [
        {
          "components": [
            {
              "internalType": "address",
              "name": "assetContract",
              "type": "address"
            },
            {
              "internalType": "uint256",
              "name": "tokenId",
              "type": "uint256"
            },
            {
              "internalType": "uint256",
              "name": "startTime",
              "type": "uint256"
            },
            {
              "internalType": "uint256",
              "name": "secondsUntilEndTime",
              "type": "uint256"
            },
            {
              "internalType": "uint256",
              "name": "quantityToList",
              "type": "uint256"
            },
            {
              "internalType": "address",
              "name": "currencyToAccept",
              "type": "address"
            },
            {
              "internalType": "uint256",
              "name": "reservePricePerToken",
              "type": "uint256"
            },
            {
              "internalType": "uint256",
              "name": "buyoutPricePerToken",
              "type": "uint256"
            },
            {
              "internalType": "uint256",
              "name": "rewardBps",
              "type": "uint256"
            },
            {
              "internalType": "enum IMarketplace.ListingType",
              "name": "listingType",
              "type": "uint8"
            }
          ],
          "internalType": "struct IMarketplace.ListingParameters",
          "name": "_params",
          "type": "tuple"
        },
        {
          "internalType": "address",
          "name": "_charityRecipient",
          "type": "address"
        },
        {
          "internalType": "uint256",
          "name": "_charityBps",
          "type": "uint256"
        }
      ],
      "name": "createListing",
      "outputs": [],
      "stateMutability": "nonpayable",
      "type": "function"
    },
    {
      "inputs": [],
      "name": "getPlatformFeeInfo",
      "outputs": [
        {
          "internalType": "address",
          "name": "",
          "type": "address"
        },
        {
          "internalType": "uint16",
          "name": "",
          "type": "uint16"
        }
      ],
      "stateMutability": "view",
      "type": "function"
    },
    {
      "inputs": [
        {
          "internalType": "address",
          "name": "_rewardEscrow",
          "type": "address"
        }
      ],
      "name": "initialize",
      "outputs": [],
      "stateMutability": "nonpayable",
      "type": "function"
    },
    {
      "inputs": [
        {
          "internalType": "uint256",
          "name": "",
          "type": "uint256"
        }
      ],
      "name": "listings",
      "outputs": [
        {
          "internalType": "uint256",
          "name": "listingId",
          "type": "uint256"
        },
        {
          "internalType": "address",
          "name": "tokenOwner",
          "type": "address"
        },
        {
          "internalType": "address",
          "name": "assetContract",
          "type": "address"
        },
        {
          "internalType": "uint256",
          "name": "tokenId",
          "type": "uint256"
        },
        {
          "internalType": "uint256",
          "name": "startTime",
          "type": "uint256"
        },
        {
          "internalType": "uint256",
          "name": "endTime",
          "type": "uint256"
        },
        {
          "internalType": "uint256",
          "name": "quantity",
          "type": "uint256"
        },
        {
          "internalType": "address",
          "name": "currency",
          "type": "address"
        },
        {
          "internalType": "uint256",
          "name": "reservePricePerToken",
          "type": "uint256"
        },
        {
          "internalType": "uint256",
          "name": "buyoutPricePerToken",
          "type": "uint256"
        },
        {
          "internalType": "uint256",
          "name": "rewardBps",
          "type": "uint256"
        },
        {
          "internalType": "enum IMarketplace.TokenType",
          "name": "tokenType",
          "type": "uint8"
        },
        {
          "internalType": "enum IMarketplace.ListingType",
          "name": "listingType",
          "type": "uint8"
        }
      ],
      "stateMutability": "view",
      "type": "function"
    },
    {
      "inputs": [
        {
          "internalType": "uint256",
          "name": "",
          "type": "uint256"
        }
      ],
      "name": "listings2",
      "outputs": [
        {
          "internalType": "address",
          "name": "charityRecipient",
          "type": "address"
        },
        {
          "internalType": "uint256",
          "name": "charityBps",
          "type": "uint256"
        }
      ],
      "stateMutability": "view",
      "type": "function"
    },
    {
      "inputs": [
        {
          "internalType": "uint256",
          "name": "_listingId",
          "type": "uint256"
        },
        {
          "internalType": "uint256",
          "name": "_quantityWanted",
          "type": "uint256"
        },
        {
          "internalType": "address",
          "name": "_currency",
          "type": "address"
        },
        {
          "internalType": "uint256",
          "name": "_pricePerToken",
          "type": "uint256"
        },
        {
          "internalType": "uint256",
          "name": "_expirationTimestamp",
          "type": "uint256"
        }
      ],
      "name": "offer",
      "outputs": [],
      "stateMutability": "payable",
      "type": "function"
    },
    {
      "inputs": [
        {
          "internalType": "uint256",
          "name": "",
          "type": "uint256"
        },
        {
          "internalType": "address",
          "name": "",
          "type": "address"
        }
      ],
      "name": "offers",
      "outputs": [
        {
          "internalType": "uint256",
          "name": "listingId",
          "type": "uint256"
        },
        {
          "internalType": "address",
          "name": "offeror",
          "type": "address"
        },
        {
          "internalType": "uint256",
          "name": "quantityWanted",
          "type": "uint256"
        },
        {
          "internalType": "address",
          "name": "currency",
          "type": "address"
        },
        {
          "internalType": "uint256",
          "name": "pricePerToken",
          "type": "uint256"
        },
        {
          "internalType": "uint256",
          "name": "expirationTimestamp",
          "type": "uint256"
        }
      ],
      "stateMutability": "view",
      "type": "function"
    },
    {
      "inputs": [
        {
          "internalType": "address",
          "name": "",
          "type": "address"
        },
        {
          "internalType": "address",
          "name": "",
          "type": "address"
        },
        {
          "internalType": "uint256[]",
          "name": "",
          "type": "uint256[]"
        },
        {
          "internalType": "uint256[]",
          "name": "",
          "type": "uint256[]"
        },
        {
          "internalType": "bytes",
          "name": "",
          "type": "bytes"
        }
      ],
      "name": "onERC1155BatchReceived",
      "outputs": [
        {
          "internalType": "bytes4",
          "name": "",
          "type": "bytes4"
        }
      ],
      "stateMutability": "nonpayable",
      "type": "function"
    },
    {
      "inputs": [
        {
          "internalType": "address",
          "name": "",
          "type": "address"
        },
        {
          "internalType": "address",
          "name": "",
          "type": "address"
        },
        {
          "internalType": "uint256",
          "name": "",
          "type": "uint256"
        },
        {
          "internalType": "uint256",
          "name": "",
          "type": "uint256"
        },
        {
          "internalType": "bytes",
          "name": "",
          "type": "bytes"
        }
      ],
      "name": "onERC1155Received",
      "outputs": [
        {
          "internalType": "bytes4",
          "name": "",
          "type": "bytes4"
        }
      ],
      "stateMutability": "nonpayable",
      "type": "function"
    },
    {
      "inputs": [
        {
          "internalType": "address",
          "name": "",
          "type": "address"
        },
        {
          "internalType": "address",
          "name": "",
          "type": "address"
        },
        {
          "internalType": "uint256",
          "name": "",
          "type": "uint256"
        },
        {
          "internalType": "bytes",
          "name": "",
          "type": "bytes"
        }
      ],
      "name": "onERC721Received",
      "outputs": [
        {
          "internalType": "bytes4",
          "name": "",
          "type": "bytes4"
        }
      ],
      "stateMutability": "pure",
      "type": "function"
    },
    {
      "inputs": [],
      "name": "oveCoinAddress",
      "outputs": [
        {
          "internalType": "address",
          "name": "",
          "type": "address"
        }
      ],
      "stateMutability": "view",
      "type": "function"
    },
    {
      "inputs": [],
      "name": "owner",
      "outputs": [
        {
          "internalType": "address",
          "name": "",
          "type": "address"
        }
      ],
      "stateMutability": "view",
      "type": "function"
    },
    {
      "inputs": [],
      "name": "proxiableUUID",
      "outputs": [
        {
          "internalType": "bytes32",
          "name": "",
          "type": "bytes32"
        }
      ],
      "stateMutability": "view",
      "type": "function"
    },
    {
      "inputs": [],
      "name": "renounceOwnership",
      "outputs": [],
      "stateMutability": "nonpayable",
      "type": "function"
    },
    {
      "inputs": [],
      "name": "rewardEscrow",
      "outputs": [
        {
          "internalType": "address",
          "name": "",
          "type": "address"
        }
      ],
      "stateMutability": "view",
      "type": "function"
    },
    {
      "inputs": [
        {
          "internalType": "uint256",
          "name": "_timeBuffer",
          "type": "uint256"
        },
        {
          "internalType": "uint256",
          "name": "_bidBufferBps",
          "type": "uint256"
        }
      ],
      "name": "setAuctionBuffers",
      "outputs": [],
      "stateMutability": "nonpayable",
      "type": "function"
    },
    {
      "inputs": [
        {
          "internalType": "string",
          "name": "_uri",
          "type": "string"
        }
      ],
      "name": "setContractURI",
      "outputs": [],
      "stateMutability": "nonpayable",
      "type": "function"
    },
    {
      "inputs": [
        {
          "internalType": "address",
          "name": "_platformFeeRecipient",
          "type": "address"
        },
        {
          "internalType": "uint256",
          "name": "_platformFeeBps",
          "type": "uint256"
        }
      ],
      "name": "setPlatformFeeInfo",
      "outputs": [],
      "stateMutability": "nonpayable",
      "type": "function"
    },
    {
      "inputs": [
        {
          "internalType": "bytes4",
          "name": "interfaceId",
          "type": "bytes4"
        }
      ],
      "name": "supportsInterface",
      "outputs": [
        {
          "internalType": "bool",
          "name": "",
          "type": "bool"
        }
      ],
      "stateMutability": "view",
      "type": "function"
    },
    {
      "inputs": [
        {
          "internalType": "address",
          "name": "newOwner",
          "type": "address"
        }
      ],
      "name": "transferOwnership",
      "outputs": [],
      "stateMutability": "nonpayable",
      "type": "function"
    },
    {
      "inputs": [
        {
          "internalType": "uint256",
          "name": "_listingId",
          "type": "uint256"
        },
        {
          "internalType": "uint256",
          "name": "_quantityToList",
          "type": "uint256"
        },
        {
          "internalType": "uint256",
          "name": "_reservePricePerToken",
          "type": "uint256"
        },
        {
          "internalType": "uint256",
          "name": "_buyoutPricePerToken",
          "type": "uint256"
        },
        {
          "internalType": "address",
          "name": "_currencyToAccept",
          "type": "address"
        },
        {
          "internalType": "uint256",
          "name": "_startTime",
          "type": "uint256"
        },
        {
          "internalType": "uint256",
          "name": "_secondsUntilEndTime",
          "type": "uint256"
        }
      ],
      "name": "updateListing",
      "outputs": [],
      "stateMutability": "nonpayable",
      "type": "function"
    },
    {
      "inputs": [
        {
          "internalType": "address",
          "name": "newImplementation",
          "type": "address"
        }
      ],
      "name": "upgradeTo",
      "outputs": [],
      "stateMutability": "nonpayable",
      "type": "function"
    },
    {
      "inputs": [
        {
          "internalType": "address",
          "name": "newImplementation",
          "type": "address"
        },
        {
          "internalType": "bytes",
          "name": "data",
          "type": "bytes"
        }
      ],
      "name": "upgradeToAndCall",
      "outputs": [],
      "stateMutability": "payable",
      "type": "function"
    },
    {
      "inputs": [
        {
          "internalType": "uint256",
          "name": "",
          "type": "uint256"
        }
      ],
      "name": "winningBid",
      "outputs": [
        {
          "internalType": "uint256",
          "name": "listingId",
          "type": "uint256"
        },
        {
          "internalType": "address",
          "name": "offeror",
          "type": "address"
        },
        {
          "internalType": "uint256",
          "name": "quantityWanted",
          "type": "uint256"
        },
        {
          "internalType": "address",
          "name": "currency",
          "type": "address"
        },
        {
          "internalType": "uint256",
          "name": "pricePerToken",
          "type": "uint256"
        },
        {
          "internalType": "uint256",
          "name": "expirationTimestamp",
          "type": "uint256"
        }
      ],
      "stateMutability": "view",
      "type": "function"
    },
    {
      "stateMutability": "payable",
      "type": "receive"
    }
  ],
  "bytecode": {
    "object": "0x60a06040523060805260fb80546001600160a01b03191673c8011f0680e7bf290806210f9cefd6e89b3cd89f1790553480156200003b57600080fd5b50620000466200004c565b6200010e565b600054610100900460ff1615620000b95760405162461bcd60e51b815260206004820152602760248201527f496e697469616c697a61626c653a20636f6e747261637420697320696e697469604482015266616c697a696e6760c81b606482015260840160405180910390fd5b60005460ff90811610156200010c576000805460ff191660ff9081179091556040519081527f7f26b83ff96e1f2b6a682f133852f6798a09c465da95921460cefb38474024989060200160405180910390a15b565b608051615626620001466000396000818161090a0152818161094a015281816109e901528181610a290152610abc01526156266000f3fe6080604052600436106101e75760003560e01c8063a0a8e46011610102578063d4ac9b8c11610095578063ebdfbce511610064578063ebdfbce514610736578063f23a6e611461079e578063f2fde38b146107ca578063fb0f42fe146107ea57600080fd5b8063d4ac9b8c146105b0578063de74e57b14610646578063e8a3d485146106f4578063ea0e02411461071657600080fd5b8063c4b5b15f116100d1578063c4b5b15f14610518578063c4d66de814610538578063cb2ef6f714610558578063d45573f61461057957600080fd5b8063a0a8e4601461048f578063a430be6c146104ab578063b13c0e63146104cc578063bc197c81146104ec57600080fd5b80636bab66ae1161017a5780638da5cb5b116101495780638da5cb5b146103c057806390b54a10146103f2578063913e2e431461044f578063938e3d7b1461046f57600080fd5b80636bab66ae14610358578063715018a6146103785780637506c84a1461038d5780637687ab02146103ad57600080fd5b80633a18c75f116101b65780633a18c75f146102af5780634f1ef2861461030f57806352d1902d146103225780635fef45e71461034557600080fd5b806301ffc9a7146101f3578063150b7a02146102285780631e7ac4881461026d5780633659cfe61461028f57600080fd5b366101ee57005b600080fd5b3480156101ff57600080fd5b5061021361020e366004614873565b61080a565b60405190151581526020015b60405180910390f35b34801561023457600080fd5b50610254610243366004614905565b630a85bd0160e11b95945050505050565b6040516001600160e01b0319909116815260200161021f565b34801561027957600080fd5b5061028d610288366004614977565b610841565b005b34801561029b57600080fd5b5061028d6102aa3660046149a3565b610900565b3480156102bb57600080fd5b506102f06102ca3660046149c0565b61010360205260009081526040902080546001909101546001600160a01b039091169082565b604080516001600160a01b03909316835260208301919091520161021f565b61028d61031d366004614ab7565b6109df565b34801561032e57600080fd5b50610337610aaf565b60405190815260200161021f565b61028d610353366004614b06565b610b62565b34801561036457600080fd5b5061028d610373366004614b4f565b610ee2565b34801561038457600080fd5b5061028d611200565b34801561039957600080fd5b5061028d6103a83660046149c0565b611214565b61028d6103bb366004614b7f565b611463565b3480156103cc57600080fd5b506065546001600160a01b03165b6040516001600160a01b03909116815260200161021f565b3480156103fe57600080fd5b5060fd54610100546101015460fc546040805194855261271060208601526001600160401b03600160a01b909404841690850152911660608301526001600160a01b0316608082015260a00161021f565b34801561045b57600080fd5b5061028d61046a366004614be0565b611656565b34801561047b57600080fd5b5061028d61048a366004614ca9565b611a16565b34801561049b57600080fd5b506040516002815260200161021f565b3480156104b757600080fd5b50610100546103da906001600160a01b031681565b3480156104d857600080fd5b5061028d6104e7366004614cea565b611a30565b3480156104f857600080fd5b50610254610507366004614da6565b63bc197c8160e01b95945050505050565b34801561052457600080fd5b5061028d610533366004614e53565b611e2e565b34801561054457600080fd5b5061028d6105533660046149a3565b612336565b34801561056457600080fd5b506a4d61726b6574706c61636560a81b610337565b34801561058557600080fd5b5060ff54604080516001600160a01b0383168152600160a01b90920461ffff1660208301520161021f565b3480156105bc57600080fd5b5061060d6105cb3660046149c0565b6101056020526000908152604090208054600182015460028301546003840154600485015460059095015493946001600160a01b039384169492939091169186565b604080519687526001600160a01b03958616602088015286019390935292166060840152608083019190915260a082015260c00161021f565b34801561065257600080fd5b506106db6106613660046149c0565b61010260205260009081526040902080546001820154600283015460038401546004850154600586015460068701546007880154600889015460098a0154600a8b0154600b909b0154999a6001600160a01b03998a169a988a16999798969795969495909316939192909160ff808216916101009004168d565b60405161021f9d9c9b9a99989796959493929190614ef3565b34801561070057600080fd5b50610709612511565b60405161021f9190614fa4565b34801561072257600080fd5b5061028d610731366004614fd7565b61259f565b34801561074257600080fd5b5061060d610751366004614b4f565b61010460209081526000928352604080842090915290825290208054600182015460028301546003840154600485015460059095015493946001600160a01b039384169492939091169186565b3480156107aa57600080fd5b506102546107b9366004614ff9565b63f23a6e6160e01b95945050505050565b3480156107d657600080fd5b5061028d6107e53660046149a3565b612664565b3480156107f657600080fd5b5060fb546103da906001600160a01b031681565b60006001600160e01b03198216630271189760e51b148061083b57506001600160e01b03198216630a85bd0160e11b145b92915050565b6108496126da565b6127108111156108905760405162461bcd60e51b815260206004820152600d60248201526c313839901e1e9018981818181760991b60448201526064015b60405180910390fd5b60ff80546001600160e01b031916600160a01b6001600160401b038416026001600160a01b031916176001600160a01b0384169081179091556040518281527fe2497bd806ec41a6e0dd992c29a72efc0ef8fec9092d1978fd4a1e00b2f183049060200160405180910390a25050565b6001600160a01b037f00000000000000000000000000000000000000000000000000000000000000001630036109485760405162461bcd60e51b815260040161088790615061565b7f00000000000000000000000000000000000000000000000000000000000000006001600160a01b03166109916000805160206155aa833981519152546001600160a01b031690565b6001600160a01b0316146109b75760405162461bcd60e51b8152600401610887906150ad565b6109c081612734565b604080516000808252602082019092526109dc9183919061273c565b50565b6001600160a01b037f0000000000000000000000000000000000000000000000000000000000000000163003610a275760405162461bcd60e51b815260040161088790615061565b7f00000000000000000000000000000000000000000000000000000000000000006001600160a01b0316610a706000805160206155aa833981519152546001600160a01b031690565b6001600160a01b031614610a965760405162461bcd60e51b8152600401610887906150ad565b610a9f82612734565b610aab8282600161273c565b5050565b6000306001600160a01b037f00000000000000000000000000000000000000000000000000000000000000001614610b4f5760405162461bcd60e51b815260206004820152603860248201527f555550535570677261646561626c653a206d757374206e6f742062652063616c60448201527f6c6564207468726f7567682064656c656761746563616c6c00000000000000006064820152608401610887565b506000805160206155aa83398151915290565b600260015403610b845760405162461bcd60e51b8152600401610887906150f9565b60026001819055600086815261010260205260409020015485906001600160a01b0316610bc35760405162461bcd60e51b815260040161088790615130565b60008681526101026020908152604080832081516101a081018352815481526001808301546001600160a01b039081169583019590955260028301548516938201939093526003820154606082015260048201546080820152600582015460a0820152600682015460c0820152600782015490931660e084015260088101546101008401526009810154610120840152600a810154610140840152600b810154909161016084019160ff1690811115610c7e57610c7e614eb2565b6001811115610c8f57610c8f614eb2565b8152602001600b820160019054906101000a900460ff166001811115610cb757610cb7614eb2565b6001811115610cc857610cc8614eb2565b815250509050428160a00151118015610ce45750428160800151105b610d245760405162461bcd60e51b815260206004820152601160248201527034b730b1ba34bb32903634b9ba34b7339760791b6044820152606401610887565b6040805160c0810182528881523360208201529081018790526001600160a01b03861660608201526080810185905260a0810184905260018261018001516001811115610d7357610d73614eb2565b03610e12578160e001516001600160a01b031681606001516001600160a01b031614610deb5760405162461bcd60e51b815260206004820152602160248201527f6d7573742075736520617070726f7665642063757272656e637920746f2062696044820152601960fa1b6064820152608401610887565b610dfe8261016001518360c001516128a7565b6040820152610e0d82826128e2565b610ed4565b60008261018001516001811115610e2b57610e2b614eb2565b03610ed4573415610e705760405162461bcd60e51b815260206004820152600f60248201526e1b9bc81d985b1d59481b9959591959608a1b6044820152606401610887565b6001600160a01b03861673eeeeeeeeeeeeeeeeeeeeeeeeeeeeeeeeeeeeeeee14610e9a5785610ea7565b60fc546001600160a01b03165b6001600160a01b03166060820152610160820151610ec590886128a7565b6040820152610ed48282612cd2565b505060018055505050505050565b600260015403610f045760405162461bcd60e51b8152600401610887906150f9565b60026001819055600083815261010260205260409020015482906001600160a01b0316610f435760405162461bcd60e51b815260040161088790615130565b60008381526101026020908152604080832081516101a081018352815481526001808301546001600160a01b039081169583019590955260028301548516938201939093526003820154606082015260048201546080820152600582015460a0820152600682015460c0820152600782015490931660e084015260088101546101008401526009810154610120840152600a810154610140840152600b810154909161016084019160ff1690811115610ffe57610ffe614eb2565b600181111561100f5761100f614eb2565b8152602001600b820160019054906101000a900460ff16600181111561103757611037614eb2565b600181111561104857611048614eb2565b90525090506001816101800151600181111561106657611066614eb2565b146110a55760405162461bcd60e51b815260206004820152600f60248201526e3737ba1030b71030bab1ba34b7b71760891b6044820152606401610887565b600084815261010560209081526040808320815160c0810183528154815260018201546001600160a01b039081169482019490945260028201549281019290925260038101549092166060820152600482015460808083019190915260059092015460a08201529083015190919042108061112b575060208201516001600160a01b0316155b905080156111415761113c83612e72565b6111f4565b428360a00151106111a65760405162461bcd60e51b815260206004820152602960248201527f63616e6e6f7420636c6f73652061756374696f6e206265666f7265206974206860448201526830b99032b73232b21760b91b6064820152608401610887565b82602001516001600160a01b0316856001600160a01b0316036111cd576111cd8383612fd4565b81602001516001600160a01b0316856001600160a01b0316036111f4576111f483836131ff565b50506001805550505050565b6112086126da565b611212600061338b565b565b6000818152610102602052604090206001015481906001600160a01b031633146112505760405162461bcd60e51b81526004016108879061514d565b60008281526101026020908152604080832081516101a081018352815481526001808301546001600160a01b039081169583019590955260028301548516938201939093526003820154606082015260048201546080820152600582015460a0820152600682015460c0820152600782015490931660e084015260088101546101008401526009810154610120840152600a810154610140840152600b810154909161016084019160ff169081111561130b5761130b614eb2565b600181111561131c5761131c614eb2565b8152602001600b820160019054906101000a900460ff16600181111561134457611344614eb2565b600181111561135557611355614eb2565b90525090506000816101800151600181111561137357611373614eb2565b146113aa5760405162461bcd60e51b8152602060048201526007602482015266085112549150d560ca1b6044820152606401610887565b6000838152610102602090815260408083208381556001810180546001600160a01b0319908116909155600282018054821690556003820185905560048201859055600582018590556006820185905560078201805490911690556008810184905560098101849055600a8101849055600b01805461ffff191690559083015190516001600160a01b039091169185917f58b0852506006c4be6c7ae72afcd195d9e64d7f5d8947905e914b778e47b7cf39190a3505050565b6002600154036114855760405162461bcd60e51b8152600401610887906150f9565b60026001819055600086815261010260205260409020015485906001600160a01b03166114c45760405162461bcd60e51b815260040161088790615130565b60008681526101026020908152604080832081516101a081018352815481526001808301546001600160a01b039081169583019590955260028301548516938201939093526003820154606082015260048201546080820152600582015460a0820152600682015460c0820152600782015490931660e084015260088101546101008401526009810154610120840152600a810154610140840152600b810154909161016084019160ff169081111561157f5761157f614eb2565b600181111561159057611590614eb2565b8152602001600b820160019054906101000a900460ff1660018111156115b8576115b8614eb2565b60018111156115c9576115c9614eb2565b90525060e081015190915033906001600160a01b0386811691161480156115ff5750858261012001516115fc9190615183565b84145b6116345760405162461bcd60e51b815260206004820152600660248201526521505249434560d01b6044820152606401610887565b610ed48282898560e001518a8761012001516116509190615183565b8b6133dd565b60fd805490600190600061166a838561519a565b90915550508351339060009061167f90613587565b905060006116918288608001516128a7565b9050600081116116ce5760405162461bcd60e51b81526020600482015260086024820152675155414e5449545960c01b6044820152606401610887565b60408701514281101561171d57610e106116e882426151ad565b1061171a5760405162461bcd60e51b815260206004820152600260248201526114d560f21b6044820152606401610887565b50425b6117328489600001518a6020015185876136cf565b6000604051806101a00160405280878152602001866001600160a01b031681526020018a600001516001600160a01b031681526020018a6020015181526020018381526020018a6060015184611788919061519a565b81526020018481526020018a60a001516001600160a01b031681526020018a60c0015181526020018a60e0015181526020018a610100015181526020018560018111156117d7576117d7614eb2565b81526020018a610120015160018111156117f3576117f3614eb2565b90526040805180820182526001600160a01b03808c16825260208083018c905260008b815261010282528490208551815590850151600180830180549285166001600160a01b031993841617905594860151600283018054918516918316919091179055606086015160038301556080860151600483015560a0860151600583015560c0860151600683015560e08601516007830180549190941691161790915561010084015160088201556101208401516009820155610140840151600a820155610160840151600b82018054959650929486949293919260ff199091169083818111156118e4576118e4614eb2565b0217905550610180820151600b8201805461ff00191661010083600181111561190f5761190f614eb2565b02179055505050600087815261010360209081526040909120825181546001600160a01b0319166001600160a01b0390911617815590820151600191820155826101800151600181111561196557611965614eb2565b036119ba5781610100015182610120015110156119ae5760405162461bcd60e51b81526020600482015260076024820152665245534552564560c81b6044820152606401610887565b6119ba863086856139a9565b856001600160a01b03168a600001516001600160a01b0316887f69b07e91508afe664762a81f304bc5062b3502993eba3d7fc3e91bb46b3afc3685604051611a0291906151c0565b60405180910390a450505050505050505050565b611a1e6126da565b60fe611a2b82848361531c565b505050565b600260015403611a525760405162461bcd60e51b8152600401610887906150f9565b60026001908155600085815261010260205260409020015484906001600160a01b03163314611a935760405162461bcd60e51b81526004016108879061514d565b6000858152610102602052604090206002015485906001600160a01b0316611acd5760405162461bcd60e51b815260040161088790615130565b600061010460008881526020019081526020016000206000876001600160a01b03166001600160a01b031681526020019081526020016000206040518060c0016040529081600082015481526020016001820160009054906101000a90046001600160a01b03166001600160a01b03166001600160a01b03168152602001600282015481526020016003820160009054906101000a90046001600160a01b03166001600160a01b03166001600160a01b0316815260200160048201548152602001600582015481525050905060006101026000898152602001908152602001600020604051806101a0016040529081600082015481526020016001820160009054906101000a90046001600160a01b03166001600160a01b03166001600160a01b031681526020016002820160009054906101000a90046001600160a01b03166001600160a01b03166001600160a01b03168152602001600382015481526020016004820154815260200160058201548152602001600682015481526020016007820160009054906101000a90046001600160a01b03166001600160a01b03166001600160a01b031681526020016008820154815260200160098201548152602001600a8201548152602001600b820160009054906101000a900460ff166001811115611cbc57611cbc614eb2565b6001811115611ccd57611ccd614eb2565b8152602001600b820160019054906101000a900460ff166001811115611cf557611cf5614eb2565b6001811115611d0657611d06614eb2565b81525050905081606001516001600160a01b0316866001600160a01b0316148015611d345750816080015185145b611d695760405162461bcd60e51b815260206004820152600660248201526521505249434560d01b6044820152606401610887565b428260a0015111611da65760405162461bcd60e51b81526020600482015260076024820152661156141254915160ca1b6044820152606401610887565b6000888152610104602090815260408083206001600160a01b038b1684529091528082208281556001810180546001600160a01b031990811690915560028201849055600382018054909116905560048101839055600501919091556060830151908301516080840151610ed49284928b92839291611e2491615183565b87604001516133dd565b6000878152610102602052604090206001015487906001600160a01b03163314611e6a5760405162461bcd60e51b81526004016108879061514d565b60008881526101026020908152604080832081516101a081018352815481526001808301546001600160a01b039081169583019590955260028301548516938201939093526003820154606082015260048201546080820152600582015460a0820152600682015460c0820152600782015490931660e084015260088101546101008401526009810154610120840152600a810154610140840152600b810154909161016084019160ff1690811115611f2557611f25614eb2565b6001811115611f3657611f36614eb2565b8152602001600b820160019054906101000a900460ff166001811115611f5e57611f5e614eb2565b6001811115611f6f57611f6f614eb2565b8152505090506000611f868261016001518a6128a7565b9050600060018361018001516001811115611fa357611fa3614eb2565b14905081600003611fe15760405162461bcd60e51b81526020600482015260086024820152675155414e5449545960c01b6044820152606401610887565b801561205e57826080015142106120245760405162461bcd60e51b815260206004820152600760248201526614d5105495115160ca1b6044820152606401610887565b8888101561205e5760405162461bcd60e51b81526020600482015260076024820152665245534552564560c81b6044820152606401610887565b428610156120a957610e1061207387426151ad565b106120a55760405162461bcd60e51b815260206004820152600260248201526114d560f21b6044820152606401610887565b4295505b600086156120b757866120bd565b83608001515b9050604051806101a001604052808d8152602001336001600160a01b0316815260200185604001516001600160a01b03168152602001856060015181526020018281526020018760001461211a57612115888461519a565b612120565b8560a001515b8152602001848152602001896001600160a01b031681526020018b81526020018a81526020018561014001518152602001856101600151600181111561216857612168614eb2565b8152602001856101800151600181111561218457612184614eb2565b905260008d815261010260209081526040918290208351815590830151600180830180546001600160a01b03199081166001600160a01b0394851617909155938501516002840180548616918416919091179055606085015160038401556080850151600484015560a0850151600584015560c0850151600684015560e085015160078401805490951692169190911790925561010083015160088201556101208301516009820155610140830151600a820155610160830151600b8201805492939192909160ff1990911690838181111561226257612262614eb2565b0217905550610180820151600b8201805461ff00191661010083600181111561228d5761228d614eb2565b0217905550505060c084015183146122ed5781156122b9576122b93085602001518660c00151876139a9565b6122d7846020015185604001518660600151868861016001516136cf565b81156122ed576122ed84602001513085876139a9565b83602001516001600160a01b03168c7fbbea26162edf2bc6a0255bf144ec4dd044302a301ef7d32daa835a2ddacfdef060405160405180910390a3505050505050505050505050565b600054610100900460ff16158080156123565750600054600160ff909116105b806123705750303b158015612370575060005460ff166001145b6123d35760405162461bcd60e51b815260206004820152602e60248201527f496e697469616c697a61626c653a20636f6e747261637420697320616c72656160448201526d191e481a5b9a5d1a585b1a5e995960921b6064820152608401610887565b6000805460ff1916600117905580156123f6576000805461ff0019166101001790555b6123fe613afe565b612406613b2d565b61240e613b5c565b6101008054610101805467ffffffffffffffff19166101f41790556001600160a01b0384166001600160e01b03199091161760e160a21b17905560fc80546001600160a01b031916737ed262b3552f58e12edb98bff8aee7c3d040dcc617905560408051808201909152600c81526b5f636f6e747261637455524960a01b602082015260fe9061249e90826153db565b5060ff80546001600160e01b0319167501f450021f7e60caa0c25575c22d66ceeddff8bf8a351790558015610aab576000805461ff0019169055604051600181527f7f26b83ff96e1f2b6a682f133852f6798a09c465da95921460cefb3847402498906020015b60405180910390a15050565b60fe805461251e90615294565b80601f016020809104026020016040519081016040528092919081815260200182805461254a90615294565b80156125975780601f1061256c57610100808354040283529160200191612597565b820191906000526020600020905b81548152906001019060200180831161257a57829003601f168201915b505050505081565b6125a76126da565b61271081106125e75760405162461bcd60e51b815260206004820152600c60248201526b34b73b30b634b2102128299760a11b6044820152606401610887565b610100805467ffffffffffffffff60a01b1916600160a01b6001600160401b038581169190910291909117909155610101805467ffffffffffffffff191691831691909117905560408051838152602081018390527f441ed6470e96704c3f8c9e70c209107078aab3f17311385e886081b91aa750889101612505565b61266c6126da565b6001600160a01b0381166126d15760405162461bcd60e51b815260206004820152602660248201527f4f776e61626c653a206e6577206f776e657220697320746865207a65726f206160448201526564647265737360d01b6064820152608401610887565b6109dc8161338b565b6065546001600160a01b031633146112125760405162461bcd60e51b815260206004820181905260248201527f4f776e61626c653a2063616c6c6572206973206e6f7420746865206f776e65726044820152606401610887565b6109dc6126da565b7f4910fdfa16fed3260ed0e7147f7cc6da11a60208b5b9406d12a635614ffd91435460ff161561276f57611a2b83613b83565b826001600160a01b03166352d1902d6040518163ffffffff1660e01b8152600401602060405180830381865afa9250505080156127c9575060408051601f3d908101601f191682019092526127c69181019061549a565b60015b61282c5760405162461bcd60e51b815260206004820152602e60248201527f45524331393637557067726164653a206e657720696d706c656d656e7461746960448201526d6f6e206973206e6f74205555505360901b6064820152608401610887565b6000805160206155aa833981519152811461289b5760405162461bcd60e51b815260206004820152602960248201527f45524331393637557067726164653a20756e737570706f727465642070726f786044820152681a58589b195555525160ba1b6064820152608401610887565b50611a2b838383613c1f565b6000816000036128b95750600061083b565b60018360018111156128cd576128cd614eb2565b146128d857816128db565b60015b9392505050565b8151600090815261010560209081526040808320815160c0810183528154815260018201546001600160a01b039081169482019490945260028201549281018390526003820154909316606084015260048101546080840181905260059091015460a08401529192916129559190615183565b905060008360400151846080015161296d9190615183565b60fc546101208701519192506001600160a01b031690158015906129a557508560c001518661012001516129a19190615183565b8210155b156129b9576129b486866131ff565b612bec565b6129d88660c001518761010001516129d19190615183565b8484613c44565b612a175760405162461bcd60e51b815260206004820152601060248201526f3737ba103bb4b73734b733903134b21760811b6044820152606401610887565b85516000908152610105602090815260409182902087518155908701516001820180546001600160a01b03199081166001600160a01b039384161790915592880151600283015560608801516003830180549094169116179091556080860151600482015560a0808701516005909201919091556101005490870151600160a01b9091046001600160401b031690612ab09042906151ad565b11612bec576101005460a087018051600160a01b9092046001600160401b031691612adc90839061519a565b9052508551600090815261010260209081526040918290208851815590880151600180830180546001600160a01b03199081166001600160a01b0394851617909155938a0151600284018054861691841691909117905560608a0151600384015560808a0151600484015560a08a0151600584015560c08a0151600684015560e08a015160078401805490951692169190911790925561010088015160088201556101208801516009820155610140880151600a820155610160880151600b820180548a9460ff19909116908381811115612bb957612bb9614eb2565b0217905550610180820151600b8201805461ff001916610100836001811115612be457612be4614eb2565b021790555050505b60208401516001600160a01b031615801590612c085750600083115b15612c2257612c228660e001513086602001518685613c9c565b612c378660e001518660200151308585613c9c565b8561018001516001811115612c4e57612c4e614eb2565b85602001516001600160a01b031687600001517f8a412352601a288b3de40254a9de2ab14a497aa3638a7e558480680a56e2705d886040015189604001518a60800151612c9b9190615183565b6060808c01516040805194855260208501939093526001600160a01b031691830191909152015b60405180910390a4505050505050565b8160c00151816040015111158015612cee575060008260c00151115b612d3a5760405162461bcd60e51b815260206004820152601f60248201527f696e73756666696369656e7420746f6b656e7320696e206c697374696e672e006044820152606401610887565b612d608160200151826060015183604001518460800151612d5b9190615183565b613e0d565b815160009081526101046020908152604080832082850180516001600160a01b0390811686529190935292819020845181559151600180840180549286166001600160a01b03199384161790559185015160028401556060850151600384018054919095169116179092556080830151600482015560a083015160059091015561018083015190811115612df657612df6614eb2565b81602001516001600160a01b031683600001517f8a412352601a288b3de40254a9de2ab14a497aa3638a7e558480680a56e2705d846040015185604001518660800151612e439190615183565b6060878101516040805194855260208501939093526001600160a01b0316838301529051918290030190a45050565b8051600090815261010260205260409020600101546001600160a01b03163314612ee95760405162461bcd60e51b815260206004820152602260248201527f63616c6c6572206973206e6f7420746865206c697374696e672063726561746f604482015261391760f11b6064820152608401610887565b805160009081526101026020908152604082208281556001810180546001600160a01b0319908116909155600282018054821690556003820184905560048201849055600582018490556006820184905560078201805490911690556008810183905560098101839055600a810192909255600b909101805461ffff1916905581015160c0820151612f7d913091846139a9565b8051602080830151604080516001600160a01b039092168252600092820192909252600192339290917f572cdc5ca5e918473319d0f4737494e4709ac879a7d0bcd11ce1bef24b24e81d910160405180910390a450565b60008260c001518260800151612fea9190615183565b600060c085018181524260a087019081528651835261010260209081526040938490208851815590880151600180830180546001600160a01b039384166001600160a01b031991821617909155958a015160028401805491841691881691909117905560608a0151600384015560808a01516004840155925160058301559251600682015560e08801516007820180549190941694169390931790915561010086015160088301556101208601516009830155610140860151600a830155610160860151600b8301805494955087949192909160ff19169083818111156130d3576130d3614eb2565b0217905550610180820151600b8201805461ff0019166101008360018111156130fe576130fe614eb2565b02179055505060006080840181815285518252610105602090815260409283902086518155818701516001820180546001600160a01b03199081166001600160a01b039384161790915594880151600283015560608801516003830180549096169116179093559051600483015560a085015160059092019190915584015160e085015161319192503091908487613f2e565b60001515336001600160a01b031684600001517f572cdc5ca5e918473319d0f4737494e4709ac879a7d0bcd11ce1bef24b24e81d866020015186602001516040516131f29291906001600160a01b0392831681529116602082015260400190565b60405180910390a4505050565b604081810180514260a086810191825260008085528751815261010560209081528682208851815581890151600180830180546001600160a01b03199081166001600160a01b039485161790915598516002808501919091556060808d0151600380870180548e16928716929092179091556080808f0151600480890191909155998f01516005978801558f5189526101028852978d90208f518155968f015187850180548e169187169190911790559b8e015191860180548c16928516929092179091558c015199840199909955928a01519382019390935592519183019190915560c0870151600683015560e087015160078301805490951691161790925561010085015160088301556101208501516009830155610140850151600a830155610160850151600b83018054929487949360ff191690838181111561334857613348614eb2565b0217905550610180820151600b8201805461ff00191661010083600181111561337357613373614eb2565b021790555090505061319130836020015183866139a9565b606580546001600160a01b038381166001600160a01b0319831681179093556040519116919082907f8be0079c531659141344cd1fd0a4f28419497f9722a3daafe3b4186f6b6457e090600090a35050565b6133ea8686838686614175565b808660c0018181516133fc91906151ad565b9052508551600090815261010260209081526040918290208851815590880151600180830180546001600160a01b03199081166001600160a01b0394851617909155938a0151600284018054861691841691909117905560608a0151600384015560808a0151600484015560a08a0151600584015560c08a0151600684015560e08a015160078401805490951692169190911790925561010088015160088201556101208801516009820155610140880151600a820155610160880151600b820180548a9460ff199091169083818111156134d9576134d9614eb2565b0217905550610180820151600b8201805461ff00191661010083600181111561350457613504614eb2565b021790555090505061351d85876020015185858a613f2e565b61352d86602001518583896139a9565b602080870151604080890151895182516001600160a01b038a81168252958101879052928301879052928416931691907f306e6cde5eb293794d557a3a6c844de939e6206b05e6910451c512852bf654a590606001612cc2565b6040516301ffc9a760e01b8152636cdb3d1360e11b60048201526000906001600160a01b038316906301ffc9a790602401602060405180830381865afa1580156135d5573d6000803e3d6000fd5b505050506040513d601f19601f820116820180604052508101906135f991906154b3565b1561360657506000919050565b6040516301ffc9a760e01b81526380ac58cd60e01b60048201526001600160a01b038316906301ffc9a790602401602060405180830381865afa158015613651573d6000803e3d6000fd5b505050506040513d601f19601f8201168201806040525081019061367591906154b3565b1561368257506001919050565b60405162461bcd60e51b815260206004820181905260248201527f746f6b656e206d7573742062652045524331313535206f72204552433732312e6044820152606401610887565b919050565b306000808360018111156136e5576136e5614eb2565b036137de57604051627eeac760e11b81526001600160a01b0388811660048301526024820187905285919088169062fdd58e90604401602060405180830381865afa158015613738573d6000803e3d6000fd5b505050506040513d601f19601f8201168201806040525081019061375c919061549a565b101580156137d7575060405163e985e9c560e01b81526001600160a01b038881166004830152838116602483015287169063e985e9c590604401602060405180830381865afa1580156137b3573d6000803e3d6000fd5b505050506040513d601f19601f820116820180604052508101906137d791906154b3565b9050613969565b60018360018111156137f2576137f2614eb2565b03613969576040516331a9108f60e11b8152600481018690526001600160a01b038089169190881690636352211e90602401602060405180830381865afa158015613841573d6000803e3d6000fd5b505050506040513d601f19601f8201168201806040525081019061386591906154d5565b6001600160a01b0316148015613966575060405163020604bf60e21b8152600481018690526001600160a01b03808416919088169063081812fc90602401602060405180830381865afa1580156138c0573d6000803e3d6000fd5b505050506040513d601f19601f820116820180604052508101906138e491906154d5565b6001600160a01b03161480613966575060405163e985e9c560e01b81526001600160a01b038881166004830152838116602483015287169063e985e9c590604401602060405180830381865afa158015613942573d6000803e3d6000fd5b505050506040513d601f19601f8201168201806040525081019061396691906154b3565b90505b806139a05760405162461bcd60e51b81526020600482015260076024820152660850905313919560ca1b6044820152606401610887565b50505050505050565b600081610160015160018111156139c2576139c2614eb2565b03613a565760408082015160608301519151637921219560e11b81526001600160a01b038781166004830152868116602483015260448201939093526064810185905260a06084820152600060a482015291169063f242432a9060c401600060405180830381600087803b158015613a3957600080fd5b505af1158015613a4d573d6000803e3d6000fd5b50505050613af8565b60018161016001516001811115613a6f57613a6f614eb2565b03613af85760408082015160608301519151635c46a7ef60e11b81526001600160a01b03878116600483015286811660248301526044820193909352608060648201526000608482015291169063b88d4fde9060a401600060405180830381600087803b158015613adf57600080fd5b505af1158015613af3573d6000803e3d6000fd5b505050505b50505050565b600054610100900460ff16613b255760405162461bcd60e51b8152600401610887906154f2565b611212614344565b600054610100900460ff16613b545760405162461bcd60e51b8152600401610887906154f2565b611212614371565b600054610100900460ff166112125760405162461bcd60e51b8152600401610887906154f2565b6001600160a01b0381163b613bf05760405162461bcd60e51b815260206004820152602d60248201527f455243313936373a206e657720696d706c656d656e746174696f6e206973206e60448201526c1bdd08184818dbdb9d1c9858dd609a1b6064820152608401610887565b6000805160206155aa83398151915280546001600160a01b0319166001600160a01b0392909216919091179055565b613c28836143a1565b600082511180613c355750805b15611a2b57613af883836143e1565b600082600003613c585750828110156128db565b8282118015613c945750610101546001600160401b031683612710613c7d82866151ad565b613c879190615183565b613c91919061553d565b10155b949350505050565b8115613e065773eeeeeeeeeeeeeeeeeeeeeeeeeeeeeeeeeeeeeeed196001600160a01b03861601613dfa57306001600160a01b03851603613d4157604051632e1a7d4d60e01b8152600481018390526001600160a01b03821690632e1a7d4d90602401600060405180830381600087803b158015613d1957600080fd5b505af1158015613d2d573d6000803e3d6000fd5b50505050613d3c8383836144d5565b613e06565b306001600160a01b03841603613def57348214613d965760405162461bcd60e51b81526020600482015260136024820152721b5cd9cb9d985b1d5948084f48185b5bdd5b9d606a1b6044820152606401610887565b806001600160a01b031663d0e30db0836040518263ffffffff1660e01b81526004016000604051808303818588803b158015613dd157600080fd5b505af1158015613de5573d6000803e3d6000fd5b5050505050613e06565b613d3c8383836144d5565b613e068585858561459a565b5050505050565b6040516370a0823160e01b81526001600160a01b0384811660048301528291908416906370a0823190602401602060405180830381865afa158015613e56573d6000803e3d6000fd5b505050506040513d601f19601f82011682018060405250810190613e7a919061549a565b10158015613ef95750604051636eb1769f60e11b81526001600160a01b03848116600483015230602483015282919084169063dd62ed3e90604401602060405180830381865afa158015613ed2573d6000803e3d6000fd5b505050506040513d601f19601f82011682018060405250810190613ef6919061549a565b10155b611a2b5760405162461bcd60e51b815260206004820152600660248201526502142414c32360d41b6044820152606401610887565b6000806127106001600160401b031683610140015185613f4e9190615183565b613f58919061553d565b60fb549091506000908190819081906001600160a01b038a8116911614613fa95760ff5461271090613f9a90600160a01b90046001600160401b03168a615183565b613fa4919061553d565b613fac565b60005b60408089015160608a0151915163152a902d60e11b81529298506001600160a01b031691632a55205a91613fed918c90600401918252602082015260400190565b6040805180830381865afa925050508015614025575060408051601f3d908101601f191682019092526140229181019061555f565b60015b156140ad576001600160a01b038216158015906140425750600081115b156140aa5789876140538a8461519a565b61405d919061519a565b11156140a35760405162461bcd60e51b815260206004820152601560248201527466656573206578636565642074686520707269636560581b6044820152606401610887565b8194508095505b50505b505060608501805160009081526101036020526040808220600101549251825290205460fc546001600160a01b0391821691166141168a8d8d89876140f28b8e61519a565b6140fc919061519a565b614106919061519a565b614110908e6151ad565b85613c9c565b60ff54614131908b908e906001600160a01b03168a85613c9c565b61413e8a8d868885613c9c565b61414b8a8d848685613c9c565b61010054614167908b908e906001600160a01b03168985613c9c565b505050505050505050505050565b6000856101800151600181111561418e5761418e614eb2565b146141db5760405162461bcd60e51b815260206004820152601860248201527f63616e6e6f74206275792066726f6d206c697374696e672e00000000000000006044820152606401610887565b60008560c001511180156141ef5750600083115b80156141ff57508460c001518311155b61424b5760405162461bcd60e51b815260206004820152601960248201527f696e76616c696420616d6f756e74206f6620746f6b656e732e000000000000006044820152606401610887565b8460a00151421080156142615750846080015142115b6142ad5760405162461bcd60e51b815260206004820152601760248201527f6e6f742077697468696e2073616c652077696e646f772e0000000000000000006044820152606401610887565b73eeeeeeeeeeeeeeeeeeeeeeeeeeeeeeeeeeeeeeed196001600160a01b0383160161431b578034146143165760405162461bcd60e51b81526020600482015260126024820152716d73672e76616c756520213d20707269636560701b6044820152606401610887565b614326565b614326848383613e0d565b613e06856020015186604001518760600151868961016001516136cf565b600054610100900460ff1661436b5760405162461bcd60e51b8152600401610887906154f2565b60018055565b600054610100900460ff166143985760405162461bcd60e51b8152600401610887906154f2565b6112123361338b565b6143aa81613b83565b6040516001600160a01b038216907fbc7cd75a20ee27fd9adebab32041f755214dbc6bffa90cc0225b39da2e5c2d3b90600090a250565b60606001600160a01b0383163b6144495760405162461bcd60e51b815260206004820152602660248201527f416464726573733a2064656c65676174652063616c6c20746f206e6f6e2d636f6044820152651b9d1c9858dd60d21b6064820152608401610887565b600080846001600160a01b031684604051614464919061558d565b600060405180830381855af49150503d806000811461449f576040519150601f19603f3d011682016040523d82523d6000602084013e6144a4565b606091505b50915091506144cc82826040518060600160405280602781526020016155ca602791396145f2565b95945050505050565b6000836001600160a01b03168360405160006040518083038185875af1925050503d8060008114614522576040519150601f19603f3d011682016040523d82523d6000602084013e614527565b606091505b5050905080613af857816001600160a01b031663d0e30db0846040518263ffffffff1660e01b81526004016000604051808303818588803b15801561456b57600080fd5b505af115801561457f573d6000803e3d6000fd5b50613af8935050506001600160a01b0384169050858561462b565b816001600160a01b0316836001600160a01b03160315613af857306001600160a01b038416036145dd576145d86001600160a01b038516838361462b565b613af8565b613af86001600160a01b03851684848461468e565b606083156146015750816128db565b8251156146115782518084602001fd5b8160405162461bcd60e51b81526004016108879190614fa4565b6040516001600160a01b038316602482015260448101829052611a2b90849063a9059cbb60e01b906064015b60408051601f198184030181529190526020810180516001600160e01b03166001600160e01b0319909316929092179091526146c6565b6040516001600160a01b0380851660248301528316604482015260648101829052613af89085906323b872dd60e01b90608401614657565b600061471b826040518060400160405280602081526020017f5361666545524332303a206c6f772d6c6576656c2063616c6c206661696c6564815250856001600160a01b03166147989092919063ffffffff16565b805190915015611a2b578080602001905181019061473991906154b3565b611a2b5760405162461bcd60e51b815260206004820152602a60248201527f5361666545524332303a204552433230206f7065726174696f6e20646964206e6044820152691bdd081cdd58d8d9595960b21b6064820152608401610887565b6060613c948484600085856001600160a01b0385163b6147fa5760405162461bcd60e51b815260206004820152601d60248201527f416464726573733a2063616c6c20746f206e6f6e2d636f6e74726163740000006044820152606401610887565b600080866001600160a01b03168587604051614816919061558d565b60006040518083038185875af1925050503d8060008114614853576040519150601f19603f3d011682016040523d82523d6000602084013e614858565b606091505b50915091506148688282866145f2565b979650505050505050565b60006020828403121561488557600080fd5b81356001600160e01b0319811681146128db57600080fd5b6001600160a01b03811681146109dc57600080fd5b80356136ca8161489d565b60008083601f8401126148cf57600080fd5b5081356001600160401b038111156148e657600080fd5b6020830191508360208285010111156148fe57600080fd5b9250929050565b60008060008060006080868803121561491d57600080fd5b85356149288161489d565b945060208601356149388161489d565b93506040860135925060608601356001600160401b0381111561495a57600080fd5b614966888289016148bd565b969995985093965092949392505050565b6000806040838503121561498a57600080fd5b82356149958161489d565b946020939093013593505050565b6000602082840312156149b557600080fd5b81356128db8161489d565b6000602082840312156149d257600080fd5b5035919050565b634e487b7160e01b600052604160045260246000fd5b60405161014081016001600160401b0381118282101715614a1257614a126149d9565b60405290565b604051601f8201601f191681016001600160401b0381118282101715614a4057614a406149d9565b604052919050565b600082601f830112614a5957600080fd5b81356001600160401b03811115614a7257614a726149d9565b614a85601f8201601f1916602001614a18565b818152846020838601011115614a9a57600080fd5b816020850160208301376000918101602001919091529392505050565b60008060408385031215614aca57600080fd5b8235614ad58161489d565b915060208301356001600160401b03811115614af057600080fd5b614afc85828601614a48565b9150509250929050565b600080600080600060a08688031215614b1e57600080fd5b85359450602086013593506040860135614b378161489d565b94979396509394606081013594506080013592915050565b60008060408385031215614b6257600080fd5b823591506020830135614b748161489d565b809150509250929050565b600080600080600060a08688031215614b9757600080fd5b853594506020860135614ba98161489d565b9350604086013592506060860135614bc08161489d565b949793965091946080013592915050565b8035600281106136ca57600080fd5b6000806000838503610180811215614bf757600080fd5b61014080821215614c0757600080fd5b614c0f6149ef565b9150614c1a866148b2565b825260208601356020830152604086013560408301526060860135606083015260808601356080830152614c5060a087016148b2565b60a083015260c086013560c083015260e086013560e0830152610100808701358184015250610120614c83818801614bd1565b8184015250819450614c968187016148b2565b9350505061016084013590509250925092565b60008060208385031215614cbc57600080fd5b82356001600160401b03811115614cd257600080fd5b614cde858286016148bd565b90969095509350505050565b60008060008060808587031215614d0057600080fd5b843593506020850135614d128161489d565b92506040850135614d228161489d565b9396929550929360600135925050565b600082601f830112614d4357600080fd5b813560206001600160401b03821115614d5e57614d5e6149d9565b8160051b614d6d828201614a18565b9283528481018201928281019087851115614d8757600080fd5b83870192505b8483101561486857823582529183019190830190614d8d565b600080600080600060a08688031215614dbe57600080fd5b8535614dc98161489d565b94506020860135614dd98161489d565b935060408601356001600160401b0380821115614df557600080fd5b614e0189838a01614d32565b94506060880135915080821115614e1757600080fd5b614e2389838a01614d32565b93506080880135915080821115614e3957600080fd5b50614e4688828901614a48565b9150509295509295909350565b600080600080600080600060e0888a031215614e6e57600080fd5b873596506020880135955060408801359450606088013593506080880135614e958161489d565b9699959850939692959460a0840135945060c09093013592915050565b634e487b7160e01b600052602160045260246000fd5b600281106109dc57634e487b7160e01b600052602160045260246000fd5b614eef81614ec8565b9052565b8d81526001600160a01b038d811660208301528c81166040830152606082018c9052608082018b905260a082018a905260c08201899052871660e08201526101008101869052610120810185905261014081018490526101a08101614f5784614ec8565b83610160830152614f6783614ec8565b826101808301529e9d5050505050505050505050505050565b60005b83811015614f9b578181015183820152602001614f83565b50506000910152565b6020815260008251806020840152614fc3816040850160208701614f80565b601f01601f19169190910160400192915050565b60008060408385031215614fea57600080fd5b50508035926020909101359150565b600080600080600060a0868803121561501157600080fd5b853561501c8161489d565b9450602086013561502c8161489d565b9350604086013592506060860135915060808601356001600160401b0381111561505557600080fd5b614e4688828901614a48565b6020808252602c908201527f46756e6374696f6e206d7573742062652063616c6c6564207468726f7567682060408201526b19195b1959d85d1958d85b1b60a21b606082015260800190565b6020808252602c908201527f46756e6374696f6e206d7573742062652063616c6c6564207468726f7567682060408201526b6163746976652070726f787960a01b606082015260800190565b6020808252601f908201527f5265656e7472616e637947756172643a207265656e7472616e742063616c6c00604082015260600190565b602080825260039082015262444e4560e81b604082015260600190565b60208082526006908201526510a7aba722a960d11b604082015260600190565b634e487b7160e01b600052601160045260246000fd5b808202811582820484141761083b5761083b61516d565b8082018082111561083b5761083b61516d565b8181038181111561083b5761083b61516d565b815181526020808301516101a08301916151e4908401826001600160a01b03169052565b5060408301516151ff60408401826001600160a01b03169052565b50606083015160608301526080830151608083015260a083015160a083015260c083015160c083015260e083015161524260e08401826001600160a01b03169052565b506101008381015190830152610120808401519083015261014080840151908301526101608084015161527782850182614ee6565b50506101808084015161528c82850182614ee6565b505092915050565b600181811c908216806152a857607f821691505b6020821081036152c857634e487b7160e01b600052602260045260246000fd5b50919050565b601f821115611a2b57600081815260208120601f850160051c810160208610156152f55750805b601f850160051c820191505b8181101561531457828155600101615301565b505050505050565b6001600160401b03831115615333576153336149d9565b615347836153418354615294565b836152ce565b6000601f84116001811461537b57600085156153635750838201355b600019600387901b1c1916600186901b178355613e06565b600083815260209020601f19861690835b828110156153ac578685013582556020948501946001909201910161538c565b50868210156153c95760001960f88860031b161c19848701351681555b505060018560011b0183555050505050565b81516001600160401b038111156153f4576153f46149d9565b615408816154028454615294565b846152ce565b602080601f83116001811461543d57600084156154255750858301515b600019600386901b1c1916600185901b178555615314565b600085815260208120601f198616915b8281101561546c5788860151825594840194600190910190840161544d565b508582101561548a5787850151600019600388901b60f8161c191681555b5050505050600190811b01905550565b6000602082840312156154ac57600080fd5b5051919050565b6000602082840312156154c557600080fd5b815180151581146128db57600080fd5b6000602082840312156154e757600080fd5b81516128db8161489d565b6020808252602b908201527f496e697469616c697a61626c653a20636f6e7472616374206973206e6f74206960408201526a6e697469616c697a696e6760a81b606082015260800190565b60008261555a57634e487b7160e01b600052601260045260246000fd5b500490565b6000806040838503121561557257600080fd5b825161557d8161489d565b6020939093015192949293505050565b6000825161559f818460208701614f80565b919091019291505056fe360894a13ba1a3210667c828492db98dca3e2076cc3735a920a3ca505d382bbc416464726573733a206c6f772d6c6576656c2064656c65676174652063616c6c206661696c6564a2646970667358221220ede6e1ff50c076972b02acad611da98176599762f1238a741fe59216dfd346fc64736f6c63430008120033",
    "linkReferences": {}
  },
  "methodIdentifiers": {
    "acceptOffer(uint256,address,address,uint256)": "b13c0e63",
    "basicParams()": "90b54a10",
    "buy(uint256,address,uint256,address,uint256)": "7687ab02",
    "cancelDirectListing(uint256)": "7506c84a",
    "closeAuction(uint256,address)": "6bab66ae",
    "contractType()": "cb2ef6f7",
    "contractURI()": "e8a3d485",
    "contractVersion()": "a0a8e460",
    "createListing((address,uint256,uint256,uint256,uint256,address,uint256,uint256,uint256,uint8),address,uint256)": "913e2e43",
    "getPlatformFeeInfo()": "d45573f6",
    "initialize(address)": "c4d66de8",
    "listings(uint256)": "de74e57b",
    "listings2(uint256)": "3a18c75f",
    "offer(uint256,uint256,address,uint256,uint256)": "5fef45e7",
    "offers(uint256,address)": "ebdfbce5",
    "onERC1155BatchReceived(address,address,uint256[],uint256[],bytes)": "bc197c81",
    "onERC1155Received(address,address,uint256,uint256,bytes)": "f23a6e61",
    "onERC721Received(address,address,uint256,bytes)": "150b7a02",
    "oveCoinAddress()": "fb0f42fe",
    "owner()": "8da5cb5b",
    "proxiableUUID()": "52d1902d",
    "renounceOwnership()": "715018a6",
    "rewardEscrow()": "a430be6c",
    "setAuctionBuffers(uint256,uint256)": "ea0e0241",
    "setContractURI(string)": "938e3d7b",
    "setPlatformFeeInfo(address,uint256)": "1e7ac488",
    "supportsInterface(bytes4)": "01ffc9a7",
    "transferOwnership(address)": "f2fde38b",
    "updateListing(uint256,uint256,uint256,uint256,address,uint256,uint256)": "c4b5b15f",
    "upgradeTo(address)": "3659cfe6",
    "upgradeToAndCall(address,bytes)": "4f1ef286",
    "winningBid(uint256)": "d4ac9b8c"
  },
  "id": 3
}